{
  "contractName": "Ownable",
  "abi": [
    {
      "inputs": [],
      "stateMutability": "nonpayable",
      "type": "constructor"
    },
    {
      "anonymous": false,
      "inputs": [
        {
          "indexed": true,
          "internalType": "address",
          "name": "account",
          "type": "address"
        }
      ],
      "name": "DistributorAdded",
      "type": "event"
    },
    {
      "anonymous": false,
      "inputs": [
        {
          "indexed": true,
          "internalType": "address",
          "name": "account",
          "type": "address"
        }
      ],
      "name": "DistributorRemoved",
      "type": "event"
    },
    {
      "anonymous": false,
      "inputs": [
        {
          "indexed": true,
          "internalType": "address",
          "name": "account",
          "type": "address"
        }
      ],
      "name": "FarmerAdded",
      "type": "event"
    },
    {
      "anonymous": false,
      "inputs": [
        {
          "indexed": true,
          "internalType": "address",
          "name": "account",
          "type": "address"
        }
      ],
      "name": "FarmerRemoved",
      "type": "event"
    },
    {
      "anonymous": false,
      "inputs": [
        {
          "indexed": false,
          "internalType": "uint256",
          "name": "upc",
          "type": "uint256"
        }
      ],
      "name": "ForSale",
      "type": "event"
    },
    {
      "anonymous": false,
      "inputs": [
        {
          "indexed": false,
          "internalType": "uint256",
          "name": "upc",
          "type": "uint256"
        }
      ],
      "name": "Harvested",
      "type": "event"
    },
    {
      "anonymous": false,
      "inputs": [
        {
          "indexed": false,
          "internalType": "uint256",
          "name": "upc",
          "type": "uint256"
        }
      ],
      "name": "Packed",
      "type": "event"
    },
    {
      "anonymous": false,
      "inputs": [
        {
          "indexed": false,
          "internalType": "uint256",
          "name": "upc",
          "type": "uint256"
        }
      ],
      "name": "Processed",
      "type": "event"
    },
    {
      "anonymous": false,
      "inputs": [
        {
          "indexed": false,
          "internalType": "uint256",
          "name": "upc",
          "type": "uint256"
        }
      ],
      "name": "Purchased",
      "type": "event"
    },
    {
      "anonymous": false,
      "inputs": [
        {
          "indexed": false,
          "internalType": "uint256",
          "name": "upc",
          "type": "uint256"
        }
      ],
      "name": "Received",
      "type": "event"
    },
    {
      "anonymous": false,
      "inputs": [
        {
          "indexed": false,
          "internalType": "uint256",
          "name": "upc",
          "type": "uint256"
        }
      ],
      "name": "Shipped",
      "type": "event"
    },
    {
      "anonymous": false,
      "inputs": [
        {
          "indexed": false,
          "internalType": "uint256",
          "name": "upc",
          "type": "uint256"
        }
      ],
      "name": "Sold",
      "type": "event"
    },
    {
      "anonymous": false,
      "inputs": [
        {
          "indexed": true,
          "internalType": "address",
          "name": "oldOwner",
          "type": "address"
        },
        {
          "indexed": true,
          "internalType": "address",
          "name": "newOwner",
          "type": "address"
        }
      ],
      "name": "TransferOwnership",
      "type": "event"
    },
    {
      "inputs": [
        {
          "internalType": "address",
          "name": "account",
          "type": "address"
        }
      ],
      "name": "addConsumer",
      "outputs": [],
      "stateMutability": "nonpayable",
      "type": "function"
    },
    {
      "inputs": [
        {
          "internalType": "address",
          "name": "account",
          "type": "address"
        }
      ],
      "name": "addDistributor",
      "outputs": [],
      "stateMutability": "nonpayable",
      "type": "function"
    },
    {
      "inputs": [
        {
          "internalType": "address",
          "name": "account",
          "type": "address"
        }
      ],
      "name": "addFarmer",
      "outputs": [],
      "stateMutability": "nonpayable",
      "type": "function"
    },
    {
      "inputs": [
        {
          "internalType": "address",
          "name": "account",
          "type": "address"
        }
      ],
      "name": "addRetailer",
      "outputs": [],
      "stateMutability": "nonpayable",
      "type": "function"
    },
    {
      "inputs": [
        {
          "internalType": "uint256",
          "name": "_upc",
          "type": "uint256"
        }
      ],
      "name": "buyItem",
      "outputs": [],
      "stateMutability": "payable",
      "type": "function"
    },
    {
      "inputs": [
        {
          "internalType": "uint256",
          "name": "_upc",
          "type": "uint256"
        }
      ],
      "name": "fetchItemBufferOne",
      "outputs": [
        {
          "internalType": "uint256",
          "name": "itemSKU",
          "type": "uint256"
        },
        {
          "internalType": "uint256",
          "name": "itemUPC",
          "type": "uint256"
        },
        {
          "internalType": "address",
          "name": "genesisOwnerID",
          "type": "address"
        },
        {
          "internalType": "address",
          "name": "originFarmerID",
          "type": "address"
        },
        {
          "internalType": "string",
          "name": "originFarmName",
          "type": "string"
        },
        {
          "internalType": "string",
          "name": "originFarmInformation",
          "type": "string"
        },
        {
          "internalType": "string",
          "name": "originFarmLatitude",
          "type": "string"
        },
        {
          "internalType": "string",
          "name": "originFarmLongitude",
          "type": "string"
        }
      ],
      "stateMutability": "view",
      "type": "function"
    },
    {
      "inputs": [
        {
          "internalType": "uint256",
          "name": "_upc",
          "type": "uint256"
        }
      ],
      "name": "fetchItemBufferTwo",
      "outputs": [
        {
          "internalType": "uint256",
          "name": "itemSKU",
          "type": "uint256"
        },
        {
          "internalType": "uint256",
          "name": "itemUPC",
          "type": "uint256"
        },
        {
          "internalType": "uint256",
          "name": "productID",
          "type": "uint256"
        },
        {
          "internalType": "string",
          "name": "productNotes",
          "type": "string"
        },
        {
          "internalType": "uint256",
          "name": "productPrice",
          "type": "uint256"
        },
        {
          "internalType": "uint256",
          "name": "itemState",
          "type": "uint256"
        },
        {
          "internalType": "address",
          "name": "distributorID",
          "type": "address"
        },
        {
          "internalType": "address",
          "name": "retailerID",
          "type": "address"
        },
        {
          "internalType": "address",
          "name": "consumerID",
          "type": "address"
        }
      ],
      "stateMutability": "view",
      "type": "function"
    },
    {
      "inputs": [
        {
          "internalType": "uint256",
          "name": "_upc",
          "type": "uint256"
        },
        {
          "internalType": "address",
          "name": "_originFarmerID",
          "type": "address"
        },
        {
          "internalType": "string",
          "name": "_originFarmName",
          "type": "string"
        },
        {
          "internalType": "string",
          "name": "_originFarmInformation",
          "type": "string"
        },
        {
          "internalType": "string",
          "name": "_originFarmLatitude",
          "type": "string"
        },
        {
          "internalType": "string",
          "name": "_originFarmLongitude",
          "type": "string"
        },
        {
          "internalType": "string",
          "name": "_productNotes",
          "type": "string"
        }
      ],
      "name": "harvestItem",
      "outputs": [],
      "stateMutability": "nonpayable",
      "type": "function"
    },
    {
      "inputs": [
        {
          "internalType": "address",
          "name": "account",
          "type": "address"
        }
      ],
      "name": "isConsumer",
      "outputs": [
        {
          "internalType": "bool",
          "name": "",
          "type": "bool"
        }
      ],
      "stateMutability": "view",
      "type": "function"
    },
    {
      "inputs": [
        {
          "internalType": "address",
          "name": "account",
          "type": "address"
        }
      ],
      "name": "isDistributor",
      "outputs": [
        {
          "internalType": "bool",
          "name": "",
          "type": "bool"
        }
      ],
      "stateMutability": "view",
      "type": "function"
    },
    {
      "inputs": [
        {
          "internalType": "address",
          "name": "account",
          "type": "address"
        }
      ],
      "name": "isFarmer",
      "outputs": [
        {
          "internalType": "bool",
          "name": "",
          "type": "bool"
        }
      ],
      "stateMutability": "view",
      "type": "function"
    },
    {
      "inputs": [
        {
          "internalType": "address",
          "name": "account",
          "type": "address"
        }
      ],
      "name": "isRetailer",
      "outputs": [
        {
          "internalType": "bool",
          "name": "",
          "type": "bool"
        }
      ],
      "stateMutability": "view",
      "type": "function"
    },
    {
      "inputs": [],
      "name": "kill",
      "outputs": [],
      "stateMutability": "nonpayable",
      "type": "function"
    },
    {
      "inputs": [
        {
          "internalType": "uint256",
          "name": "_upc",
          "type": "uint256"
        }
      ],
      "name": "packItem",
      "outputs": [],
      "stateMutability": "nonpayable",
      "type": "function"
    },
    {
      "inputs": [
        {
          "internalType": "uint256",
          "name": "_upc",
          "type": "uint256"
        }
      ],
      "name": "processItem",
      "outputs": [],
      "stateMutability": "nonpayable",
      "type": "function"
    },
    {
      "inputs": [
        {
          "internalType": "uint256",
          "name": "_upc",
          "type": "uint256"
        }
      ],
      "name": "purchaseItem",
      "outputs": [],
      "stateMutability": "nonpayable",
      "type": "function"
    },
    {
      "inputs": [
        {
          "internalType": "uint256",
          "name": "_upc",
          "type": "uint256"
        }
      ],
      "name": "receiveItem",
      "outputs": [],
      "stateMutability": "nonpayable",
      "type": "function"
    },
    {
      "inputs": [],
      "name": "renounceConsumer",
      "outputs": [],
      "stateMutability": "nonpayable",
      "type": "function"
    },
    {
      "inputs": [],
      "name": "renounceDistributor",
      "outputs": [],
      "stateMutability": "nonpayable",
      "type": "function"
    },
    {
      "inputs": [],
      "name": "renounceFarmer",
      "outputs": [],
      "stateMutability": "nonpayable",
      "type": "function"
    },
    {
      "inputs": [],
      "name": "renounceRetailer",
      "outputs": [],
      "stateMutability": "nonpayable",
      "type": "function"
    },
    {
      "inputs": [
        {
          "internalType": "uint256",
          "name": "_upc",
          "type": "uint256"
        },
        {
          "internalType": "uint256",
          "name": "_price",
          "type": "uint256"
        }
      ],
      "name": "sellItem",
      "outputs": [],
      "stateMutability": "nonpayable",
      "type": "function"
    },
    {
      "inputs": [
        {
          "internalType": "uint256",
          "name": "_upc",
          "type": "uint256"
        }
      ],
      "name": "shipItem",
      "outputs": [],
      "stateMutability": "nonpayable",
      "type": "function"
    },
    {
      "inputs": [],
      "name": "getOwner",
      "outputs": [
        {
          "internalType": "address",
          "name": "",
          "type": "address"
        }
      ],
      "stateMutability": "view",
      "type": "function"
    },
    {
      "inputs": [],
      "name": "isOwner",
      "outputs": [
        {
          "internalType": "bool",
          "name": "",
          "type": "bool"
        }
      ],
      "stateMutability": "view",
      "type": "function"
    },
    {
      "inputs": [],
      "name": "renounceOwnership",
      "outputs": [],
      "stateMutability": "nonpayable",
      "type": "function"
    },
    {
      "inputs": [
        {
          "internalType": "address",
          "name": "newOwner",
          "type": "address"
        }
      ],
      "name": "transferOwnership",
      "outputs": [],
      "stateMutability": "nonpayable",
      "type": "function"
    }
  ],
  "bytecode": "0x608060405234801561001057600080fd5b5061001a33610084565b60028054336001600160a01b031991821681179092556001600481905560035560078054909116909117908190556040516001600160a01b03909116906000907f5c486528ec3e3f0ea91181cff8116f02bfa350e03b8b6f12e00765adbb5af85c908290a3610154565b61009c8160016100d360201b610aa61790919060201c565b6040516001600160a01b038216907f2e0ded4123377a3c2bc9a26f1717655a129e2f20752924d42e730ec89c83dbd090600090a250565b6001600160a01b0381166100e657600080fd5b6100f0828261011f565b156100fa57600080fd5b6001600160a01b0316600090815260209190915260409020805460ff19166001179055565b60006001600160a01b03821661013457600080fd5b506001600160a01b03166000908152602091909152604090205460ff1690565b6110ae806101636000396000f3fe60806040526004361061019c5760003560e01c8063834ff739116100ec578063bdd8a6a81161008a578063e7fb74c711610064578063e7fb74c714610419578063f2fde38b14610427578063f30fc48014610447578063f61c899a146103be5761019c565b8063bdd8a6a8146103f9578063d38ea5bf146103be578063db0e6a2f1461024c5761019c565b80638f0c86fa116100c65780638f0c86fa1461037d5780638f32d59b1461039d578063a26be999146103be578063b9429069146103d95761019c565b8063834ff73914610216578063893d20e8146103555780638ec4f505146101a15761019c565b8063644241db116101595780637250e224116101335780637250e224146102ba57806377c45913146102da57806380c3f96d1461032057806380fc0ce4146103405761019c565b8063644241db1461024c57806366225ff91461025e578063715018a6146102a55761019c565b8063112940f9146101a15780632d923561146101c157806341c0e1b5146101e157806349dae766146101f65780635da09b881461021657806361e6982d1461024c575b600080fd5b3480156101ad57600080fd5b506101bf6101bc366004610d99565b50565b005b3480156101cd57600080fd5b506101bf6101dc366004610eb8565b610467565b3480156101ed57600080fd5b506101bf61054f565b34801561020257600080fd5b506101bf610211366004610dba565b610573565b34801561022257600080fd5b50610237610231366004610d99565b50600090565b60405190151581526020015b60405180910390f35b34801561025857600080fd5b506101bf565b34801561026a57600080fd5b50610290610279366004610dba565b506000908190819060609082908190819081908190565b60405161024399989796959493929190610fa9565b3480156102b157600080fd5b506101bf610651565b3480156102c657600080fd5b506101bf6102d5366004610d99565b6106b8565b3480156102e657600080fd5b5061030c6102f5366004610dba565b600080600080606080606080919395975091939597565b604051610243989796959493929190610f24565b34801561032c57600080fd5b506101bf61033b366004610d99565b6106c5565b34801561034c57600080fd5b506101bf6106e0565b34801561036157600080fd5b506007546040516001600160a01b039091168152602001610243565b34801561038957600080fd5b50610237610398366004610d99565b6106e9565b3480156103a957600080fd5b506102376007546001600160a01b0316331490565b3480156103ca57600080fd5b506101bf6101bc366004610dba565b3480156103e557600080fd5b506102376103f4366004610d99565b6106fb565b34801561040557600080fd5b506101bf610414366004610dd2565b610710565b6101bf6101bc366004610dba565b34801561043357600080fd5b506101bf610442366004610d99565b6109a9565b34801561045357600080fd5b506101bf610462366004610dba565b6109cf565b8160026000828152600560205260409020600b015460ff16600781111561049e57634e487b7160e01b600052602160045260246000fd5b146104e15760405162461bcd60e51b815260206004820152600e60248201526d139bdd081e595d08141858dad95960921b60448201526064015b60405180910390fd5b6104ea336106fb565b6104f357600080fd5b600083815260056020908152604091829020600b8101805460ff19166003179055600a0184905590518481527f92f64ca637d023f354075a4be751b169c1a8a9ccb6d33cdd0cb3520543995727910160405180910390a1505050565b6002546001600160a01b0316331415610571576002546001600160a01b031680ff5b565b80600080828152600560205260409020600b015460ff1660078111156105a957634e487b7160e01b600052602160045260246000fd5b146105ea5760405162461bcd60e51b8152602060048201526011602482015270139bdd081e595d081a185c9d995cdd1959607a1b60448201526064016104d8565b6105f3336106fb565b6105fc57600080fd5b600082815260056020908152604091829020600b01805460ff1916600117905590518381527f5afe3b1bf87069693c075da5c22a98d63d1aef98a30dbbe538d0781a98b77ee591015b60405180910390a15050565b6106656007546001600160a01b0316331490565b61066e57600080fd5b6007546040516000916001600160a01b0316907f5c486528ec3e3f0ea91181cff8116f02bfa350e03b8b6f12e00765adbb5af85c908390a3600780546001600160a01b0319169055565b6106c1336106e9565b5050565b6106ce336106fb565b6106d757600080fd5b6101bc81610af2565b61057133610b34565b60006106f58183610b76565b50919050565b6000610708600183610b76565b90505b919050565b604051806101e001604052806004548152602001888152602001600260009054906101000a90046001600160a01b03166001600160a01b03168152602001876001600160a01b03168152602001868152602001858152602001848152602001838152602001600454896107839190611009565b815260200182815260200160008152602001600060078111156107b657634e487b7160e01b600052602160045260246000fd5b815260006020808301829052604080840183905260609384018390528b8352600582529182902084518155848201516001820155918401516002830180546001600160a01b03199081166001600160a01b03938416179091559385015160038401805490951691161790925560808301518051919261083d92600485019290910190610c62565b5060a08201518051610859916005840191602090910190610c62565b5060c08201518051610875916006840191602090910190610c62565b5060e08201518051610891916007840191602090910190610c62565b50610100820151600882015561012082015180516108b9916009840191602090910190610c62565b50610140820151600a820155610160820151600b8201805460ff191660018360078111156108f757634e487b7160e01b600052602160045260246000fd5b0217905550610180820151600b82018054610100600160a81b0319166101006001600160a01b03938416021790556101a0830151600c830180546001600160a01b03199081169284169290921790556101c090930151600d9092018054909316911617905560045461096a906001611009565b6004556040518781527f8e55ccfc9778ff8eba1646d765cf1982537ce0f9257054a17b48aad7452501839060200160405180910390a150505050505050565b6109bd6007546001600160a01b0316331490565b6109c657600080fd5b6101bc81610bab565b8060016000828152600560205260409020600b015460ff166007811115610a0657634e487b7160e01b600052602160045260246000fd5b14610a475760405162461bcd60e51b8152602060048201526011602482015270139bdd081e595d08141c9bd8d95cdcd959607a1b60448201526064016104d8565b610a50336106fb565b610a5957600080fd5b600082815260056020908152604091829020600b01805460ff1916600217905590518381527f9b3b66e2380b690bae22c73ef1428fb0c91e72fe14a4b6defa13035214187aff9101610645565b6001600160a01b038116610ab957600080fd5b610ac38282610b76565b15610acd57600080fd5b6001600160a01b0316600090815260209190915260409020805460ff19166001179055565b610afd600182610aa6565b6040516001600160a01b038216907f2e0ded4123377a3c2bc9a26f1717655a129e2f20752924d42e730ec89c83dbd090600090a250565b610b3f600182610c1a565b6040516001600160a01b038216907fa5e0f060af304ab17dd418c7927e3da3ae7868189bf387aee09ab179ccc572f290600090a250565b60006001600160a01b038216610b8b57600080fd5b506001600160a01b03166000908152602091909152604090205460ff1690565b6001600160a01b038116610bbe57600080fd5b6007546040516001600160a01b038084169216907f5c486528ec3e3f0ea91181cff8116f02bfa350e03b8b6f12e00765adbb5af85c90600090a3600780546001600160a01b0319166001600160a01b0392909216919091179055565b6001600160a01b038116610c2d57600080fd5b610c378282610b76565b610c4057600080fd5b6001600160a01b0316600090815260209190915260409020805460ff19169055565b828054610c6e9061102d565b90600052602060002090601f016020900481019282610c905760008555610cd6565b82601f10610ca957805160ff1916838001178555610cd6565b82800160010185558215610cd6579182015b82811115610cd6578251825591602001919060010190610cbb565b50610ce2929150610ce6565b5090565b5b80821115610ce25760008155600101610ce7565b80356001600160a01b038116811461070b57600080fd5b600082601f830112610d22578081fd5b813567ffffffffffffffff80821115610d3d57610d3d611062565b604051601f8301601f19908116603f01168101908282118183101715610d6557610d65611062565b81604052838152866020858801011115610d7d578485fd5b8360208701602083013792830160200193909352509392505050565b600060208284031215610daa578081fd5b610db382610cfb565b9392505050565b600060208284031215610dcb578081fd5b5035919050565b600080600080600080600060e0888a031215610dec578283fd5b87359650610dfc60208901610cfb565b9550604088013567ffffffffffffffff80821115610e18578485fd5b610e248b838c01610d12565b965060608a0135915080821115610e39578485fd5b610e458b838c01610d12565b955060808a0135915080821115610e5a578485fd5b610e668b838c01610d12565b945060a08a0135915080821115610e7b578384fd5b610e878b838c01610d12565b935060c08a0135915080821115610e9c578283fd5b50610ea98a828b01610d12565b91505092959891949750929550565b60008060408385031215610eca578182fd5b50508035926020909101359150565b60008151808452815b81811015610efe57602081850181015186830182015201610ee2565b81811115610f0f5782602083870101525b50601f01601f19169290920160200192915050565b888152602081018890526001600160a01b0387811660408301528616606082015261010060808201819052600090610f5e83820188610ed9565b905082810360a0840152610f728187610ed9565b905082810360c0840152610f868186610ed9565b905082810360e0840152610f9a8185610ed9565b9b9a5050505050505050505050565b60006101208b83528a6020840152896040840152806060840152610fcf8184018a610ed9565b6080840198909852505060a08101949094526001600160a01b0392831660c085015290821660e08401521661010090910152949350505050565b6000821982111561102857634e487b7160e01b81526011600452602481fd5b500190565b60028104600182168061104157607f821691505b602082108114156106f557634e487b7160e01b600052602260045260246000fd5b634e487b7160e01b600052604160045260246000fdfea264697066735822122089fa1e5d76545028e22b948d0e9003fd9aef53c2c2f66940eb56b5160cb6120164736f6c63430008020033",
  "immutableReferences": {},
  "source": "// SPDX-License-Identifier: MIT\npragma solidity >=0.6.8;\nimport '../coffeebase/SupplyChain.sol';\n\n/// Provides basic authorization control\ncontract Ownable is SupplyChain {\n    address private origOwner;\n\n    // Define an Event\n    event TransferOwnership(address indexed oldOwner, address indexed newOwner);\n\n    /// Assign the contract to an owner\n    constructor () {\n        origOwner = msg.sender;\n        emit TransferOwnership(address(0), origOwner);\n    }\n\n    /// Look up the address of the owner\n    function getOwner() public view returns (address) {\n        return origOwner;\n    }\n\n    /// Define a function modifier 'onlyOwner'\n    modifier onlyCurrentOwner() {\n        require(isOwner());\n        _;\n    }\n\n    /// Check if the calling address is the owner of the contract\n    function isOwner() public view returns (bool) {\n        return msg.sender == origOwner;\n    }\n\n    /// Define a function to renounce ownerhip\n    function renounceOwnership() public onlyCurrentOwner {\n        emit TransferOwnership(origOwner, address(0));\n        origOwner = address(0);\n    }\n\n    /// Define a public function to transfer ownership\n    function transferOwnership(address newOwner) public onlyCurrentOwner {\n        _transferOwnership(newOwner);\n    }\n\n    /// Define an internal function to transfer ownership\n    function _transferOwnership(address newOwner) internal {\n        require(newOwner != address(0));\n        emit TransferOwnership(origOwner, newOwner);\n        origOwner = newOwner;\n    }\n}\n",
  "sourcePath": "/Users/hryer/Code/udacity/coffee-supply-chain/contracts/coffeecore/Ownable.sol",
  "compiler": {
    "name": "solc",
    "version": "0.8.2+commit.661d1103.Emscripten.clang"
  },
  "schemaVersion": "3.4.3",
  "updatedAt": "2021-09-08T19:08:44.358Z",
  "devdoc": {
    "kind": "dev",
    "methods": {},
    "version": 1
  },
  "userdoc": {
    "kind": "user",
    "methods": {
      "constructor": {
        "notice": "Assign the contract to an owner"
      },
      "getOwner()": {
        "notice": "Look up the address of the owner"
      },
      "isOwner()": {
        "notice": "Check if the calling address is the owner of the contract"
      },
      "renounceOwnership()": {
        "notice": "Define a function to renounce ownerhip"
      },
      "transferOwnership(address)": {
        "notice": "Define a public function to transfer ownership"
      }
    },
    "notice": "Provides basic authorization control",
    "version": 1
  }
}