{
  "contractName": "Ownable",
  "abi": [
    {
      "inputs": [],
      "stateMutability": "nonpayable",
      "type": "constructor"
    },
    {
      "anonymous": false,
      "inputs": [
        {
          "indexed": true,
          "internalType": "address",
          "name": "account",
          "type": "address"
        }
      ],
      "name": "ConsumerAdded",
      "type": "event"
    },
    {
      "anonymous": false,
      "inputs": [
        {
          "indexed": true,
          "internalType": "address",
          "name": "account",
          "type": "address"
        }
      ],
      "name": "ConsumerRemoved",
      "type": "event"
    },
    {
      "anonymous": false,
      "inputs": [
        {
          "indexed": true,
          "internalType": "address",
          "name": "account",
          "type": "address"
        }
      ],
      "name": "DistributorAdded",
      "type": "event"
    },
    {
      "anonymous": false,
      "inputs": [
        {
          "indexed": true,
          "internalType": "address",
          "name": "account",
          "type": "address"
        }
      ],
      "name": "DistributorRemoved",
      "type": "event"
    },
    {
      "anonymous": false,
      "inputs": [
        {
          "indexed": true,
          "internalType": "address",
          "name": "account",
          "type": "address"
        }
      ],
      "name": "FarmerAdded",
      "type": "event"
    },
    {
      "anonymous": false,
      "inputs": [
        {
          "indexed": true,
          "internalType": "address",
          "name": "account",
          "type": "address"
        }
      ],
      "name": "FarmerRemoved",
      "type": "event"
    },
    {
      "anonymous": false,
      "inputs": [
        {
          "indexed": false,
          "internalType": "uint256",
          "name": "upc",
          "type": "uint256"
        }
      ],
      "name": "ForSale",
      "type": "event"
    },
    {
      "anonymous": false,
      "inputs": [
        {
          "indexed": false,
          "internalType": "uint256",
          "name": "upc",
          "type": "uint256"
        }
      ],
      "name": "Harvested",
      "type": "event"
    },
    {
      "anonymous": false,
      "inputs": [
        {
          "indexed": false,
          "internalType": "uint256",
          "name": "upc",
          "type": "uint256"
        }
      ],
      "name": "Packed",
      "type": "event"
    },
    {
      "anonymous": false,
      "inputs": [
        {
          "indexed": false,
          "internalType": "uint256",
          "name": "upc",
          "type": "uint256"
        }
      ],
      "name": "Processed",
      "type": "event"
    },
    {
      "anonymous": false,
      "inputs": [
        {
          "indexed": false,
          "internalType": "uint256",
          "name": "upc",
          "type": "uint256"
        }
      ],
      "name": "Purchased",
      "type": "event"
    },
    {
      "anonymous": false,
      "inputs": [
        {
          "indexed": false,
          "internalType": "uint256",
          "name": "upc",
          "type": "uint256"
        }
      ],
      "name": "Received",
      "type": "event"
    },
    {
      "anonymous": false,
      "inputs": [
        {
          "indexed": true,
          "internalType": "address",
          "name": "account",
          "type": "address"
        }
      ],
      "name": "RetailerAdded",
      "type": "event"
    },
    {
      "anonymous": false,
      "inputs": [
        {
          "indexed": true,
          "internalType": "address",
          "name": "account",
          "type": "address"
        }
      ],
      "name": "RetailerRemoved",
      "type": "event"
    },
    {
      "anonymous": false,
      "inputs": [
        {
          "indexed": false,
          "internalType": "uint256",
          "name": "upc",
          "type": "uint256"
        }
      ],
      "name": "Shipped",
      "type": "event"
    },
    {
      "anonymous": false,
      "inputs": [
        {
          "indexed": false,
          "internalType": "uint256",
          "name": "upc",
          "type": "uint256"
        }
      ],
      "name": "Sold",
      "type": "event"
    },
    {
      "anonymous": false,
      "inputs": [
        {
          "indexed": true,
          "internalType": "address",
          "name": "oldOwner",
          "type": "address"
        },
        {
          "indexed": true,
          "internalType": "address",
          "name": "newOwner",
          "type": "address"
        }
      ],
      "name": "TransferOwnership",
      "type": "event"
    },
    {
      "inputs": [
        {
          "internalType": "address",
          "name": "account",
          "type": "address"
        }
      ],
      "name": "addConsumer",
      "outputs": [],
      "stateMutability": "nonpayable",
      "type": "function"
    },
    {
      "inputs": [
        {
          "internalType": "address",
          "name": "account",
          "type": "address"
        }
      ],
      "name": "addDistributor",
      "outputs": [],
      "stateMutability": "nonpayable",
      "type": "function"
    },
    {
      "inputs": [
        {
          "internalType": "address",
          "name": "account",
          "type": "address"
        }
      ],
      "name": "addFarmer",
      "outputs": [],
      "stateMutability": "nonpayable",
      "type": "function"
    },
    {
      "inputs": [
        {
          "internalType": "address",
          "name": "account",
          "type": "address"
        }
      ],
      "name": "addRetailer",
      "outputs": [],
      "stateMutability": "nonpayable",
      "type": "function"
    },
    {
      "inputs": [
        {
          "internalType": "uint256",
          "name": "_upc",
          "type": "uint256"
        }
      ],
      "name": "buyItem",
      "outputs": [],
      "stateMutability": "payable",
      "type": "function"
    },
    {
      "inputs": [
        {
          "internalType": "uint256",
          "name": "_upc",
          "type": "uint256"
        }
      ],
      "name": "fetchItemBufferOne",
      "outputs": [
        {
          "internalType": "uint256",
          "name": "itemSKU",
          "type": "uint256"
        },
        {
          "internalType": "uint256",
          "name": "itemUPC",
          "type": "uint256"
        },
        {
          "internalType": "address",
          "name": "itemOwnerID",
          "type": "address"
        },
        {
          "internalType": "address",
          "name": "originFarmerID",
          "type": "address"
        },
        {
          "internalType": "string",
          "name": "originFarmName",
          "type": "string"
        },
        {
          "internalType": "string",
          "name": "originFarmInformation",
          "type": "string"
        },
        {
          "internalType": "string",
          "name": "originFarmLatitude",
          "type": "string"
        },
        {
          "internalType": "string",
          "name": "originFarmLongitude",
          "type": "string"
        }
      ],
      "stateMutability": "view",
      "type": "function"
    },
    {
      "inputs": [
        {
          "internalType": "uint256",
          "name": "_upc",
          "type": "uint256"
        }
      ],
      "name": "fetchItemBufferTwo",
      "outputs": [
        {
          "internalType": "uint256",
          "name": "itemSKU",
          "type": "uint256"
        },
        {
          "internalType": "uint256",
          "name": "itemUPC",
          "type": "uint256"
        },
        {
          "internalType": "uint256",
          "name": "productID",
          "type": "uint256"
        },
        {
          "internalType": "string",
          "name": "productNotes",
          "type": "string"
        },
        {
          "internalType": "uint256",
          "name": "productPrice",
          "type": "uint256"
        },
        {
          "internalType": "uint256",
          "name": "itemState",
          "type": "uint256"
        },
        {
          "internalType": "address",
          "name": "distributorID",
          "type": "address"
        },
        {
          "internalType": "address",
          "name": "retailerID",
          "type": "address"
        },
        {
          "internalType": "address",
          "name": "consumerID",
          "type": "address"
        }
      ],
      "stateMutability": "view",
      "type": "function"
    },
    {
      "inputs": [
        {
          "internalType": "uint256",
          "name": "_upc",
          "type": "uint256"
        },
        {
          "internalType": "address",
          "name": "_originFarmerID",
          "type": "address"
        },
        {
          "internalType": "string",
          "name": "_originFarmName",
          "type": "string"
        },
        {
          "internalType": "string",
          "name": "_originFarmInformation",
          "type": "string"
        },
        {
          "internalType": "string",
          "name": "_originFarmLatitude",
          "type": "string"
        },
        {
          "internalType": "string",
          "name": "_originFarmLongitude",
          "type": "string"
        },
        {
          "internalType": "string",
          "name": "_productNotes",
          "type": "string"
        }
      ],
      "name": "harvestItem",
      "outputs": [],
      "stateMutability": "nonpayable",
      "type": "function"
    },
    {
      "inputs": [
        {
          "internalType": "address",
          "name": "account",
          "type": "address"
        }
      ],
      "name": "isConsumer",
      "outputs": [
        {
          "internalType": "bool",
          "name": "",
          "type": "bool"
        }
      ],
      "stateMutability": "view",
      "type": "function"
    },
    {
      "inputs": [
        {
          "internalType": "address",
          "name": "account",
          "type": "address"
        }
      ],
      "name": "isDistributor",
      "outputs": [
        {
          "internalType": "bool",
          "name": "",
          "type": "bool"
        }
      ],
      "stateMutability": "view",
      "type": "function"
    },
    {
      "inputs": [
        {
          "internalType": "address",
          "name": "account",
          "type": "address"
        }
      ],
      "name": "isFarmer",
      "outputs": [
        {
          "internalType": "bool",
          "name": "",
          "type": "bool"
        }
      ],
      "stateMutability": "view",
      "type": "function"
    },
    {
      "inputs": [
        {
          "internalType": "address",
          "name": "account",
          "type": "address"
        }
      ],
      "name": "isRetailer",
      "outputs": [
        {
          "internalType": "bool",
          "name": "",
          "type": "bool"
        }
      ],
      "stateMutability": "view",
      "type": "function"
    },
    {
      "inputs": [],
      "name": "kill",
      "outputs": [],
      "stateMutability": "nonpayable",
      "type": "function"
    },
    {
      "inputs": [
        {
          "internalType": "uint256",
          "name": "_upc",
          "type": "uint256"
        }
      ],
      "name": "packItem",
      "outputs": [],
      "stateMutability": "nonpayable",
      "type": "function"
    },
    {
      "inputs": [
        {
          "internalType": "uint256",
          "name": "_upc",
          "type": "uint256"
        }
      ],
      "name": "processItem",
      "outputs": [],
      "stateMutability": "nonpayable",
      "type": "function"
    },
    {
      "inputs": [
        {
          "internalType": "uint256",
          "name": "_upc",
          "type": "uint256"
        }
      ],
      "name": "purchaseItem",
      "outputs": [],
      "stateMutability": "nonpayable",
      "type": "function"
    },
    {
      "inputs": [
        {
          "internalType": "uint256",
          "name": "_upc",
          "type": "uint256"
        }
      ],
      "name": "receiveItem",
      "outputs": [],
      "stateMutability": "nonpayable",
      "type": "function"
    },
    {
      "inputs": [],
      "name": "renounceConsumer",
      "outputs": [],
      "stateMutability": "nonpayable",
      "type": "function"
    },
    {
      "inputs": [],
      "name": "renounceDistributor",
      "outputs": [],
      "stateMutability": "nonpayable",
      "type": "function"
    },
    {
      "inputs": [],
      "name": "renounceFarmer",
      "outputs": [],
      "stateMutability": "nonpayable",
      "type": "function"
    },
    {
      "inputs": [],
      "name": "renounceRetailer",
      "outputs": [],
      "stateMutability": "nonpayable",
      "type": "function"
    },
    {
      "inputs": [
        {
          "internalType": "uint256",
          "name": "_upc",
          "type": "uint256"
        },
        {
          "internalType": "uint256",
          "name": "_price",
          "type": "uint256"
        }
      ],
      "name": "sellItem",
      "outputs": [],
      "stateMutability": "nonpayable",
      "type": "function"
    },
    {
      "inputs": [
        {
          "internalType": "uint256",
          "name": "_upc",
          "type": "uint256"
        }
      ],
      "name": "shipItem",
      "outputs": [],
      "stateMutability": "nonpayable",
      "type": "function"
    },
    {
      "inputs": [],
      "name": "getOwner",
      "outputs": [
        {
          "internalType": "address",
          "name": "",
          "type": "address"
        }
      ],
      "stateMutability": "view",
      "type": "function"
    },
    {
      "inputs": [],
      "name": "isOwner",
      "outputs": [
        {
          "internalType": "bool",
          "name": "",
          "type": "bool"
        }
      ],
      "stateMutability": "view",
      "type": "function"
    },
    {
      "inputs": [],
      "name": "renounceOwnership",
      "outputs": [],
      "stateMutability": "nonpayable",
      "type": "function"
    },
    {
      "inputs": [
        {
          "internalType": "address",
          "name": "newOwner",
          "type": "address"
        }
      ],
      "name": "transferOwnership",
      "outputs": [],
      "stateMutability": "nonpayable",
      "type": "function"
    }
  ],
  "bytecode": "0x60806040523480156200001157600080fd5b506200001d33620000a9565b6200002833620000fb565b62000033336200014d565b6200003e336200019f565b60048054336001600160a01b031991821681179092556001600681905560055560098054909116909117908190556040516001600160a01b03909116906000907f5c486528ec3e3f0ea91181cff8116f02bfa350e03b8b6f12e00765adbb5af85c908290a362000277565b620000c4816000620001f160201b620010621790919060201c565b6040516001600160a01b038216907f28b26e7a3d20aedbc5f8f2ebf7da671c0491723a2b78f47a097b0e46dee0714290600090a250565b62000116816001620001f160201b620010621790919060201c565b6040516001600160a01b038216907fddbf200aa634dc3fb81cfd68583dd1040d1c751d335e1d86b631bde3e977fea890600090a250565b62000168816002620001f160201b620010621790919060201c565b6040516001600160a01b038216907f2e0ded4123377a3c2bc9a26f1717655a129e2f20752924d42e730ec89c83dbd090600090a250565b620001ba816003620001f160201b620010621790919060201c565b6040516001600160a01b038216907f71ae26cad02663e3d92efd6ec56031a80d74a20c0ab4183faa8bf262261c9baa90600090a250565b6001600160a01b0381166200020557600080fd5b62000211828262000241565b156200021c57600080fd5b6001600160a01b0316600090815260209190915260409020805460ff19166001179055565b60006001600160a01b0382166200025757600080fd5b506001600160a01b03166000908152602091909152604090205460ff1690565b6117f680620002876000396000f3fe60806040526004361061019c5760003560e01c8063834ff739116100ec578063bdd8a6a81161008a578063e7fb74c711610064578063e7fb74c7146104ac578063f2fde38b146104bf578063f30fc480146104df578063f61c899a146104ff5761019c565b8063bdd8a6a814610457578063d38ea5bf14610477578063db0e6a2f146104975761019c565b80638f0c86fa116100c65780638f0c86fa146103d65780638f32d59b146103f6578063a26be99914610417578063b9429069146104375761019c565b8063834ff7391461036e578063893d20e81461038e5780638ec4f505146103b65761019c565b8063644241db116101595780637250e224116101335780637250e224146102d357806377c45913146102f357806380c3f96d1461033957806380fc0ce4146103595761019c565b8063644241db1461026257806366225ff914610277578063715018a6146102be5761019c565b8063112940f9146101a15780632d923561146101c357806341c0e1b5146101e357806349dae766146101f85780635da09b881461021857806361e6982d1461024d575b600080fd5b3480156101ad57600080fd5b506101c16101bc3660046114e1565b61051f565b005b3480156101cf57600080fd5b506101c16101de366004611600565b61053d565b3480156101ef57600080fd5b506101c1610627565b34801561020457600080fd5b506101c1610213366004611502565b61064b565b34801561022457600080fd5b506102386102333660046114e1565b61072b565b60405190151581526020015b60405180910390f35b34801561025957600080fd5b506101c1610740565b34801561026e57600080fd5b506101c1610749565b34801561028357600080fd5b506102a9610292366004611502565b506000908190819060609082908190819081908190565b604051610244999897969594939291906116f1565b3480156102ca57600080fd5b506101c1610752565b3480156102df57600080fd5b506101c16102ee3660046114e1565b6107b9565b3480156102ff57600080fd5b5061032561030e366004611502565b600080600080606080606080919395975091939597565b60405161024498979695949392919061166c565b34801561034557600080fd5b506101c16103543660046114e1565b6107cc565b34801561036557600080fd5b506101c16107e7565b34801561037a57600080fd5b506102386103893660046114e1565b6107f0565b34801561039a57600080fd5b506009546040516001600160a01b039091168152602001610244565b3480156103c257600080fd5b506101c16103d13660046114e1565b6107fc565b3480156103e257600080fd5b506102386103f13660046114e1565b610817565b34801561040257600080fd5b506102386009546001600160a01b0316331490565b34801561042357600080fd5b506101c1610432366004611502565b61082a565b34801561044357600080fd5b506102386104523660046114e1565b610928565b34801561046357600080fd5b506101c161047236600461151a565b610935565b34801561048357600080fd5b506101c1610492366004611502565b610bce565b3480156104a357600080fd5b506101c1610cd1565b6101c16104ba366004611502565b610cda565b3480156104cb57600080fd5b506101c16104da3660046114e1565b610e97565b3480156104eb57600080fd5b506101c16104fa366004611502565b610ebd565b34801561050b57600080fd5b506101c161051a366004611502565b610f96565b610528336107f0565b61053157600080fd5b61053a816110ae565b50565b8160026000828152600760208190526040909120600b015460ff169081111561057657634e487b7160e01b600052602160045260246000fd5b146105b95760405162461bcd60e51b815260206004820152600e60248201526d139bdd081e595d08141858dad95960921b60448201526064015b60405180910390fd5b6105c233610928565b6105cb57600080fd5b600083815260076020908152604091829020600b8101805460ff19166003179055600a0184905590518481527fa96ae0fc3224ebd79eebfe54bd130cc9cb94416cddd1f2386115e00b72532468910160405180910390a1505050565b6004546001600160a01b0316331415610649576004546001600160a01b031680ff5b565b80600080828152600760208190526040909120600b015460ff169081111561068357634e487b7160e01b600052602160045260246000fd5b146106c45760405162461bcd60e51b8152602060048201526011602482015270139bdd081e595d081a185c9d995cdd1959607a1b60448201526064016105b0565b6106cd33610928565b6106d657600080fd5b600082815260076020908152604091829020600b01805460ff1916600117905590518381527f5afe3b1bf87069693c075da5c22a98d63d1aef98a30dbbe538d0781a98b77ee591015b60405180910390a15050565b60006107386003836110f0565b90505b919050565b61064933611125565b61064933611167565b6107666009546001600160a01b0316331490565b61076f57600080fd5b6009546040516000916001600160a01b0316907f5c486528ec3e3f0ea91181cff8116f02bfa350e03b8b6f12e00765adbb5af85c908390a3600980546001600160a01b0319169055565b6107c233610817565b5061053a816111a9565b6107d533610928565b6107de57600080fd5b61053a816111eb565b6106493361122d565b600061073881836110f0565b6108053361072b565b61080e57600080fd5b61053a8161126f565b60006108246001836110f0565b50919050565b8060056000828152600760208190526040909120600b015460ff169081111561086357634e487b7160e01b600052602160045260246000fd5b146108a25760405162461bcd60e51b815260206004820152600f60248201526e139bdd081e595d0814da1a5c1c1959608a1b60448201526064016105b0565b6108ab3361072b565b6108b457600080fd5b6000828152600760209081526040918290206002810180546001600160a01b031990811633908117909255600c830180549091169091179055600b01805460ff1916600617905590518381527fa8142743f8f70a4c26f3691cf4ed59718381fb2f18070ec52be1f1022d855557910161071f565b60006107386002836110f0565b604051806101e001604052806006548152602001888152602001600460009054906101000a90046001600160a01b03166001600160a01b03168152602001876001600160a01b03168152602001868152602001858152602001848152602001838152602001600654896109a89190611751565b815260200182815260200160008152602001600060078111156109db57634e487b7160e01b600052602160045260246000fd5b815260006020808301829052604080840183905260609384018390528b8352600782529182902084518155848201516001820155918401516002830180546001600160a01b03199081166001600160a01b039384161790915593850151600384018054909516911617909255608083015180519192610a62926004850192909101906113aa565b5060a08201518051610a7e9160058401916020909101906113aa565b5060c08201518051610a9a9160068401916020909101906113aa565b5060e08201518051610ab69160078401916020909101906113aa565b5061010082015160088201556101208201518051610ade9160098401916020909101906113aa565b50610140820151600a820155610160820151600b8201805460ff19166001836007811115610b1c57634e487b7160e01b600052602160045260246000fd5b0217905550610180820151600b82018054610100600160a81b0319166101006001600160a01b03938416021790556101a0830151600c830180546001600160a01b03199081169284169290921790556101c090930151600d90920180549093169116179055600654610b8f906001611751565b6006556040518781527f8e55ccfc9778ff8eba1646d765cf1982537ce0f9257054a17b48aad7452501839060200160405180910390a150505050505050565b8060066000828152600760208190526040909120600b015460ff1690811115610c0757634e487b7160e01b600052602160045260246000fd5b14610c475760405162461bcd60e51b815260206004820152601060248201526f139bdd081e595d08149958d95a5d995960821b60448201526064016105b0565b610c50336107f0565b610c5957600080fd5b6000828152600760208190526040909120600281018054336001600160a01b03199182168117909255600d830180549091169091179055600b01805460ff191660018302179055506040518281527f653d56639fee6b566a5c804764e9689de38645f0b733df89a36a1b7b42173dd89060200161071f565b610649336112b1565b8060036000828152600760208190526040909120600b015460ff1690811115610d1357634e487b7160e01b600052602160045260246000fd5b14610d525760405162461bcd60e51b815260206004820152600f60248201526e4e6f742079657420466f7253616c6560881b60448201526064016105b0565b6000828152600760205260409020600a015434811115610dc65760405162461bcd60e51b815260206004820152602960248201527f596f7572206d6f6e657920646f65736e7420656e6f75676820746f206275792060448201526874686973206974656d60b81b60648201526084016105b0565b610dcf33610817565b506000838152600760205260408082206002810180546001600160a01b03191633908117909155600b8201805460ff19610100909302610100600160a81b0319909116179190911660041790556003810154600a9091015491516001600160a01b039091169283926108fc811502929091818181858888f19350505050158015610e5d573d6000803e3d6000fd5b506040518481527f92f64ca637d023f354075a4be751b169c1a8a9ccb6d33cdd0cb35205439957279060200160405180910390a150505050565b610eab6009546001600160a01b0316331490565b610eb457600080fd5b61053a816112f3565b8060016000828152600760208190526040909120600b015460ff1690811115610ef657634e487b7160e01b600052602160045260246000fd5b14610f375760405162461bcd60e51b8152602060048201526011602482015270139bdd081e595d08141c9bd8d95cdcd959607a1b60448201526064016105b0565b610f4033610928565b610f4957600080fd5b600082815260076020908152604091829020600b01805460ff1916600217905590518381527f9b3b66e2380b690bae22c73ef1428fb0c91e72fe14a4b6defa13035214187aff910161071f565b8060046000828152600760208190526040909120600b015460ff1690811115610fcf57634e487b7160e01b600052602160045260246000fd5b1461100b5760405162461bcd60e51b815260206004820152600c60248201526b139bdd081e595d0814dbdb1960a21b60448201526064016105b0565b61101433610817565b50600082815260076020908152604091829020600b01805460ff1916600517905590518381527ff00b9a5725b80c54016f42114f6ed7792d22eecb116011c4afac29c57bef6c95910161071f565b6001600160a01b03811661107557600080fd5b61107f82826110f0565b1561108957600080fd5b6001600160a01b0316600090815260209190915260409020805460ff19166001179055565b6110b9600082611062565b6040516001600160a01b038216907f28b26e7a3d20aedbc5f8f2ebf7da671c0491723a2b78f47a097b0e46dee0714290600090a250565b60006001600160a01b03821661110557600080fd5b506001600160a01b03166000908152602091909152604090205460ff1690565b611130600082611362565b6040516001600160a01b038216907fe3f5ed5f263f1f01764a96edfc7d025f511ec5f7d180e8816908b78bcf74f09890600090a250565b611172600182611362565b6040516001600160a01b038216907f126174f6cf49c81cdb4a9214c6b8f037bef55b4ec31e4fc776cea2a1c8a88d5990600090a250565b6111b4600182611062565b6040516001600160a01b038216907fddbf200aa634dc3fb81cfd68583dd1040d1c751d335e1d86b631bde3e977fea890600090a250565b6111f6600282611062565b6040516001600160a01b038216907f2e0ded4123377a3c2bc9a26f1717655a129e2f20752924d42e730ec89c83dbd090600090a250565b611238600282611362565b6040516001600160a01b038216907fa5e0f060af304ab17dd418c7927e3da3ae7868189bf387aee09ab179ccc572f290600090a250565b61127a600382611062565b6040516001600160a01b038216907f71ae26cad02663e3d92efd6ec56031a80d74a20c0ab4183faa8bf262261c9baa90600090a250565b6112bc600382611362565b6040516001600160a01b038216907fdb7176e79cffef81cb01767dd0447a0b24bb72ca9778d4b245581086b2a7e6db90600090a250565b6001600160a01b03811661130657600080fd5b6009546040516001600160a01b038084169216907f5c486528ec3e3f0ea91181cff8116f02bfa350e03b8b6f12e00765adbb5af85c90600090a3600980546001600160a01b0319166001600160a01b0392909216919091179055565b6001600160a01b03811661137557600080fd5b61137f82826110f0565b61138857600080fd5b6001600160a01b0316600090815260209190915260409020805460ff19169055565b8280546113b690611775565b90600052602060002090601f0160209004810192826113d8576000855561141e565b82601f106113f157805160ff191683800117855561141e565b8280016001018555821561141e579182015b8281111561141e578251825591602001919060010190611403565b5061142a92915061142e565b5090565b5b8082111561142a576000815560010161142f565b80356001600160a01b038116811461073b57600080fd5b600082601f83011261146a578081fd5b813567ffffffffffffffff80821115611485576114856117aa565b604051601f8301601f19908116603f011681019082821181831017156114ad576114ad6117aa565b816040528381528660208588010111156114c5578485fd5b8360208701602083013792830160200193909352509392505050565b6000602082840312156114f2578081fd5b6114fb82611443565b9392505050565b600060208284031215611513578081fd5b5035919050565b600080600080600080600060e0888a031215611534578283fd5b8735965061154460208901611443565b9550604088013567ffffffffffffffff80821115611560578485fd5b61156c8b838c0161145a565b965060608a0135915080821115611581578485fd5b61158d8b838c0161145a565b955060808a01359150808211156115a2578485fd5b6115ae8b838c0161145a565b945060a08a01359150808211156115c3578384fd5b6115cf8b838c0161145a565b935060c08a01359150808211156115e4578283fd5b506115f18a828b0161145a565b91505092959891949750929550565b60008060408385031215611612578182fd5b50508035926020909101359150565b60008151808452815b818110156116465760208185018101518683018201520161162a565b818111156116575782602083870101525b50601f01601f19169290920160200192915050565b888152602081018890526001600160a01b03878116604083015286166060820152610100608082018190526000906116a683820188611621565b905082810360a08401526116ba8187611621565b905082810360c08401526116ce8186611621565b905082810360e08401526116e28185611621565b9b9a5050505050505050505050565b60006101208b83528a60208401528960408401528060608401526117178184018a611621565b6080840198909852505060a08101949094526001600160a01b0392831660c085015290821660e08401521661010090910152949350505050565b6000821982111561177057634e487b7160e01b81526011600452602481fd5b500190565b60028104600182168061178957607f821691505b6020821081141561082457634e487b7160e01b600052602260045260246000fd5b634e487b7160e01b600052604160045260246000fdfea26469706673582212201829d8d4000d28e96d187e1334890a60a7ad9c4f50e173a07e57ccd13c5787a364736f6c63430008020033",
  "immutableReferences": {},
  "source": "// SPDX-License-Identifier: MIT\npragma solidity >=0.6.8;\nimport '../coffeebase/SupplyChain.sol';\n\n/// Provides basic authorization control\ncontract Ownable is SupplyChain {\n    address private origOwner;\n\n    // Define an Event\n    event TransferOwnership(address indexed oldOwner, address indexed newOwner);\n\n    /// Assign the contract to an owner\n    constructor () {\n        origOwner = msg.sender;\n        emit TransferOwnership(address(0), origOwner);\n    }\n\n    /// Look up the address of the owner\n    function getOwner() public view returns (address) {\n        return origOwner;\n    }\n\n    /// Define a function modifier 'onlyOwner'\n    modifier onlyCurrentOwner() {\n        require(isOwner());\n        _;\n    }\n\n    /// Check if the calling address is the owner of the contract\n    function isOwner() public view returns (bool) {\n        return msg.sender == origOwner;\n    }\n\n    /// Define a function to renounce ownerhip\n    function renounceOwnership() public onlyCurrentOwner {\n        emit TransferOwnership(origOwner, address(0));\n        origOwner = address(0);\n    }\n\n    /// Define a public function to transfer ownership\n    function transferOwnership(address newOwner) public onlyCurrentOwner {\n        _transferOwnership(newOwner);\n    }\n\n    /// Define an internal function to transfer ownership\n    function _transferOwnership(address newOwner) internal {\n        require(newOwner != address(0));\n        emit TransferOwnership(origOwner, newOwner);\n        origOwner = newOwner;\n    }\n}\n",
  "sourcePath": "/Users/hryer/Code/udacity/coffee-supply-chain/contracts/coffeecore/Ownable.sol",
  "compiler": {
    "name": "solc",
    "version": "0.8.2+commit.661d1103.Emscripten.clang"
  },
  "schemaVersion": "3.4.3",
  "updatedAt": "2021-09-14T10:00:30.222Z",
  "devdoc": {
    "kind": "dev",
    "methods": {},
    "version": 1
  },
  "userdoc": {
    "kind": "user",
    "methods": {
      "constructor": {
        "notice": "Assign the contract to an owner"
      },
      "getOwner()": {
        "notice": "Look up the address of the owner"
      },
      "isOwner()": {
        "notice": "Check if the calling address is the owner of the contract"
      },
      "renounceOwnership()": {
        "notice": "Define a function to renounce ownerhip"
      },
      "transferOwnership(address)": {
        "notice": "Define a public function to transfer ownership"
      }
    },
    "notice": "Provides basic authorization control",
    "version": 1
  }
}