{
  "contractName": "SupplyChain",
  "abi": [
    {
      "inputs": [],
      "stateMutability": "payable",
      "type": "constructor",
      "payable": true
    },
    {
      "anonymous": false,
      "inputs": [
        {
          "indexed": true,
          "internalType": "address",
          "name": "account",
          "type": "address"
        }
      ],
      "name": "ConsumerAdded",
      "type": "event"
    },
    {
      "anonymous": false,
      "inputs": [
        {
          "indexed": true,
          "internalType": "address",
          "name": "account",
          "type": "address"
        }
      ],
      "name": "ConsumerRemoved",
      "type": "event"
    },
    {
      "anonymous": false,
      "inputs": [
        {
          "indexed": true,
          "internalType": "address",
          "name": "account",
          "type": "address"
        }
      ],
      "name": "DistributorAdded",
      "type": "event"
    },
    {
      "anonymous": false,
      "inputs": [
        {
          "indexed": true,
          "internalType": "address",
          "name": "account",
          "type": "address"
        }
      ],
      "name": "DistributorRemoved",
      "type": "event"
    },
    {
      "anonymous": false,
      "inputs": [
        {
          "indexed": true,
          "internalType": "address",
          "name": "account",
          "type": "address"
        }
      ],
      "name": "FarmerAdded",
      "type": "event"
    },
    {
      "anonymous": false,
      "inputs": [
        {
          "indexed": true,
          "internalType": "address",
          "name": "account",
          "type": "address"
        }
      ],
      "name": "FarmerRemoved",
      "type": "event"
    },
    {
      "anonymous": false,
      "inputs": [
        {
          "indexed": false,
          "internalType": "uint256",
          "name": "upc",
          "type": "uint256"
        }
      ],
      "name": "ForSale",
      "type": "event"
    },
    {
      "anonymous": false,
      "inputs": [
        {
          "indexed": false,
          "internalType": "uint256",
          "name": "upc",
          "type": "uint256"
        }
      ],
      "name": "Harvested",
      "type": "event"
    },
    {
      "anonymous": false,
      "inputs": [
        {
          "indexed": false,
          "internalType": "uint256",
          "name": "upc",
          "type": "uint256"
        }
      ],
      "name": "Packed",
      "type": "event"
    },
    {
      "anonymous": false,
      "inputs": [
        {
          "indexed": false,
          "internalType": "uint256",
          "name": "upc",
          "type": "uint256"
        }
      ],
      "name": "Processed",
      "type": "event"
    },
    {
      "anonymous": false,
      "inputs": [
        {
          "indexed": false,
          "internalType": "uint256",
          "name": "upc",
          "type": "uint256"
        }
      ],
      "name": "Purchased",
      "type": "event"
    },
    {
      "anonymous": false,
      "inputs": [
        {
          "indexed": false,
          "internalType": "uint256",
          "name": "upc",
          "type": "uint256"
        }
      ],
      "name": "Received",
      "type": "event"
    },
    {
      "anonymous": false,
      "inputs": [
        {
          "indexed": true,
          "internalType": "address",
          "name": "account",
          "type": "address"
        }
      ],
      "name": "RetailerAdded",
      "type": "event"
    },
    {
      "anonymous": false,
      "inputs": [
        {
          "indexed": true,
          "internalType": "address",
          "name": "account",
          "type": "address"
        }
      ],
      "name": "RetailerRemoved",
      "type": "event"
    },
    {
      "anonymous": false,
      "inputs": [
        {
          "indexed": false,
          "internalType": "uint256",
          "name": "upc",
          "type": "uint256"
        }
      ],
      "name": "SavedImage",
      "type": "event"
    },
    {
      "anonymous": false,
      "inputs": [
        {
          "indexed": false,
          "internalType": "uint256",
          "name": "upc",
          "type": "uint256"
        }
      ],
      "name": "Shipped",
      "type": "event"
    },
    {
      "anonymous": false,
      "inputs": [
        {
          "indexed": false,
          "internalType": "uint256",
          "name": "upc",
          "type": "uint256"
        }
      ],
      "name": "Sold",
      "type": "event"
    },
    {
      "inputs": [
        {
          "internalType": "address",
          "name": "account",
          "type": "address"
        }
      ],
      "name": "addConsumer",
      "outputs": [],
      "stateMutability": "nonpayable",
      "type": "function"
    },
    {
      "inputs": [
        {
          "internalType": "address",
          "name": "account",
          "type": "address"
        }
      ],
      "name": "addDistributor",
      "outputs": [],
      "stateMutability": "nonpayable",
      "type": "function"
    },
    {
      "inputs": [
        {
          "internalType": "address",
          "name": "account",
          "type": "address"
        }
      ],
      "name": "addFarmer",
      "outputs": [],
      "stateMutability": "nonpayable",
      "type": "function"
    },
    {
      "inputs": [
        {
          "internalType": "address",
          "name": "account",
          "type": "address"
        }
      ],
      "name": "addRetailer",
      "outputs": [],
      "stateMutability": "nonpayable",
      "type": "function"
    },
    {
      "inputs": [
        {
          "internalType": "address",
          "name": "account",
          "type": "address"
        }
      ],
      "name": "isConsumer",
      "outputs": [
        {
          "internalType": "bool",
          "name": "",
          "type": "bool"
        }
      ],
      "stateMutability": "view",
      "type": "function",
      "constant": true
    },
    {
      "inputs": [
        {
          "internalType": "address",
          "name": "account",
          "type": "address"
        }
      ],
      "name": "isDistributor",
      "outputs": [
        {
          "internalType": "bool",
          "name": "",
          "type": "bool"
        }
      ],
      "stateMutability": "view",
      "type": "function",
      "constant": true
    },
    {
      "inputs": [
        {
          "internalType": "address",
          "name": "account",
          "type": "address"
        }
      ],
      "name": "isFarmer",
      "outputs": [
        {
          "internalType": "bool",
          "name": "",
          "type": "bool"
        }
      ],
      "stateMutability": "view",
      "type": "function",
      "constant": true
    },
    {
      "inputs": [
        {
          "internalType": "address",
          "name": "account",
          "type": "address"
        }
      ],
      "name": "isRetailer",
      "outputs": [
        {
          "internalType": "bool",
          "name": "",
          "type": "bool"
        }
      ],
      "stateMutability": "view",
      "type": "function",
      "constant": true
    },
    {
      "inputs": [],
      "name": "renounceConsumer",
      "outputs": [],
      "stateMutability": "nonpayable",
      "type": "function"
    },
    {
      "inputs": [],
      "name": "renounceDistributor",
      "outputs": [],
      "stateMutability": "nonpayable",
      "type": "function"
    },
    {
      "inputs": [],
      "name": "renounceFarmer",
      "outputs": [],
      "stateMutability": "nonpayable",
      "type": "function"
    },
    {
      "inputs": [],
      "name": "renounceRetailer",
      "outputs": [],
      "stateMutability": "nonpayable",
      "type": "function"
    },
    {
      "inputs": [],
      "name": "kill",
      "outputs": [],
      "stateMutability": "nonpayable",
      "type": "function"
    },
    {
      "inputs": [
        {
          "internalType": "uint256",
          "name": "_upc",
          "type": "uint256"
        },
        {
          "internalType": "string",
          "name": "_productImage",
          "type": "string"
        }
      ],
      "name": "addProductImage",
      "outputs": [],
      "stateMutability": "nonpayable",
      "type": "function"
    },
    {
      "inputs": [
        {
          "internalType": "uint256",
          "name": "_upc",
          "type": "uint256"
        },
        {
          "internalType": "address",
          "name": "_originFarmerID",
          "type": "address"
        },
        {
          "internalType": "string",
          "name": "_originFarmName",
          "type": "string"
        },
        {
          "internalType": "string",
          "name": "_originFarmInformation",
          "type": "string"
        },
        {
          "internalType": "string",
          "name": "_originFarmLatitude",
          "type": "string"
        },
        {
          "internalType": "string",
          "name": "_originFarmLongitude",
          "type": "string"
        },
        {
          "internalType": "string",
          "name": "_productNotes",
          "type": "string"
        }
      ],
      "name": "harvestItem",
      "outputs": [],
      "stateMutability": "nonpayable",
      "type": "function"
    },
    {
      "inputs": [
        {
          "internalType": "uint256",
          "name": "_upc",
          "type": "uint256"
        }
      ],
      "name": "processItem",
      "outputs": [],
      "stateMutability": "nonpayable",
      "type": "function"
    },
    {
      "inputs": [
        {
          "internalType": "uint256",
          "name": "_upc",
          "type": "uint256"
        }
      ],
      "name": "packItem",
      "outputs": [],
      "stateMutability": "nonpayable",
      "type": "function"
    },
    {
      "inputs": [
        {
          "internalType": "uint256",
          "name": "_upc",
          "type": "uint256"
        },
        {
          "internalType": "uint256",
          "name": "_price",
          "type": "uint256"
        }
      ],
      "name": "sellItem",
      "outputs": [],
      "stateMutability": "nonpayable",
      "type": "function"
    },
    {
      "inputs": [
        {
          "internalType": "uint256",
          "name": "_upc",
          "type": "uint256"
        }
      ],
      "name": "buyItem",
      "outputs": [],
      "stateMutability": "payable",
      "type": "function",
      "payable": true
    },
    {
      "inputs": [
        {
          "internalType": "uint256",
          "name": "_upc",
          "type": "uint256"
        }
      ],
      "name": "shipItem",
      "outputs": [],
      "stateMutability": "nonpayable",
      "type": "function"
    },
    {
      "inputs": [
        {
          "internalType": "uint256",
          "name": "_upc",
          "type": "uint256"
        }
      ],
      "name": "receiveItem",
      "outputs": [],
      "stateMutability": "nonpayable",
      "type": "function"
    },
    {
      "inputs": [
        {
          "internalType": "uint256",
          "name": "_upc",
          "type": "uint256"
        }
      ],
      "name": "purchaseItem",
      "outputs": [],
      "stateMutability": "nonpayable",
      "type": "function"
    },
    {
      "inputs": [
        {
          "internalType": "uint256",
          "name": "_upc",
          "type": "uint256"
        }
      ],
      "name": "fetchItemBufferOne",
      "outputs": [
        {
          "internalType": "uint256",
          "name": "itemSKU",
          "type": "uint256"
        },
        {
          "internalType": "uint256",
          "name": "itemUPC",
          "type": "uint256"
        },
        {
          "internalType": "address",
          "name": "ownerID",
          "type": "address"
        },
        {
          "internalType": "address",
          "name": "originFarmerID",
          "type": "address"
        },
        {
          "internalType": "string",
          "name": "originFarmName",
          "type": "string"
        },
        {
          "internalType": "string",
          "name": "originFarmInformation",
          "type": "string"
        },
        {
          "internalType": "string",
          "name": "originFarmLatitude",
          "type": "string"
        },
        {
          "internalType": "string",
          "name": "originFarmLongitude",
          "type": "string"
        }
      ],
      "stateMutability": "view",
      "type": "function",
      "constant": true
    },
    {
      "inputs": [
        {
          "internalType": "uint256",
          "name": "_upc",
          "type": "uint256"
        }
      ],
      "name": "fetchItemBufferTwo",
      "outputs": [
        {
          "internalType": "uint256",
          "name": "itemSKU",
          "type": "uint256"
        },
        {
          "internalType": "uint256",
          "name": "itemUPC",
          "type": "uint256"
        },
        {
          "internalType": "uint256",
          "name": "productID",
          "type": "uint256"
        },
        {
          "internalType": "string",
          "name": "productNotes",
          "type": "string"
        },
        {
          "internalType": "uint256",
          "name": "productPrice",
          "type": "uint256"
        },
        {
          "internalType": "uint256",
          "name": "itemState",
          "type": "uint256"
        },
        {
          "internalType": "address",
          "name": "distributorID",
          "type": "address"
        },
        {
          "internalType": "address",
          "name": "retailerID",
          "type": "address"
        },
        {
          "internalType": "address",
          "name": "consumerID",
          "type": "address"
        }
      ],
      "stateMutability": "view",
      "type": "function",
      "constant": true
    }
  ],
  "bytecode": "0x60806040526200000f3362000052565b6200001a33620000a4565b6200002533620000f6565b620000303362000148565b600480546001600160a01b031916331790556001600681905560055562000220565b6200006d8160006200019a60201b620013fe1790919060201c565b6040516001600160a01b038216907f28b26e7a3d20aedbc5f8f2ebf7da671c0491723a2b78f47a097b0e46dee0714290600090a250565b620000bf8160016200019a60201b620013fe1790919060201c565b6040516001600160a01b038216907fddbf200aa634dc3fb81cfd68583dd1040d1c751d335e1d86b631bde3e977fea890600090a250565b620001118160026200019a60201b620013fe1790919060201c565b6040516001600160a01b038216907f2e0ded4123377a3c2bc9a26f1717655a129e2f20752924d42e730ec89c83dbd090600090a250565b620001638160036200019a60201b620013fe1790919060201c565b6040516001600160a01b038216907f71ae26cad02663e3d92efd6ec56031a80d74a20c0ab4183faa8bf262261c9baa90600090a250565b6001600160a01b038116620001ae57600080fd5b620001ba8282620001ea565b15620001c557600080fd5b6001600160a01b0316600090815260209190915260409020805460ff19166001179055565b60006001600160a01b0382166200020057600080fd5b506001600160a01b03166000908152602091909152604090205460ff1690565b611b9480620002306000396000f3fe60806040526004361061014b5760003560e01c806380fc0ce4116100b6578063bdd8a6a81161006f578063bdd8a6a8146103a4578063d38ea5bf146103c4578063db0e6a2f146103e4578063e7fb74c7146103f9578063f30fc4801461040c578063f61c899a1461042c57600080fd5b806380fc0ce4146102ef578063834ff739146103045780638ec4f505146103245780638f0c86fa14610344578063a26be99914610364578063b94290691461038457600080fd5b806361e6982d1161010857806361e6982d1461021c578063644241db1461023157806366225ff9146102465780637250e2241461027b57806377c459131461029b57806380c3f96d146102cf57600080fd5b8063112940f91461015057806314769c71146101725780632d9235611461019257806341c0e1b5146101b257806349dae766146101c75780635da09b88146101e7575b600080fd5b34801561015c57600080fd5b5061017061016b366004611813565b61044c565b005b34801561017e57600080fd5b5061017061018d366004611932565b61046a565b34801561019e57600080fd5b506101706101ad366004611977565b6104da565b3480156101be57600080fd5b506101706105c4565b3480156101d357600080fd5b506101706101e2366004611834565b6105e8565b3480156101f357600080fd5b50610207610202366004611813565b6106c0565b60405190151581526020015b60405180910390f35b34801561022857600080fd5b506101706106d3565b34801561023d57600080fd5b506101706106dc565b34801561025257600080fd5b50610266610261366004611834565b6106e5565b60405161021399989796959493929190611a68565b34801561028757600080fd5b50610170610296366004611813565b61082d565b3480156102a757600080fd5b506102bb6102b6366004611834565b610840565b6040516102139897969594939291906119e3565b3480156102db57600080fd5b506101706102ea366004611813565b610af6565b3480156102fb57600080fd5b50610170610b11565b34801561031057600080fd5b5061020761031f366004611813565b610b1a565b34801561033057600080fd5b5061017061033f366004611813565b610b26565b34801561035057600080fd5b5061020761035f366004611813565b610b41565b34801561037057600080fd5b5061017061037f366004611834565b610b4e565b34801561039057600080fd5b5061020761039f366004611813565b610c4c565b3480156103b057600080fd5b506101706103bf36600461184c565b610c59565b3480156103d057600080fd5b506101706103df366004611834565b610f24565b3480156103f057600080fd5b50610170611027565b610170610407366004611834565b611030565b34801561041857600080fd5b50610170610427366004611834565b611259565b34801561043857600080fd5b50610170610447366004611834565b611332565b61045533610b1a565b61045e57600080fd5b6104678161144a565b50565b61047333610c4c565b61047c57600080fd5b600082815260076020908152604090912082516104a192600b909201918401906116d7565b506040518281527fa9b095a0dadaea9b51a66915d05b7fadc32fc39e9a73ca3c1770aa51b50f8a69906020015b60405180910390a15050565b8160026000828152600760208190526040909120600c015460ff169081111561051357634e487b7160e01b600052602160045260246000fd5b146105565760405162461bcd60e51b815260206004820152600e60248201526d139bdd081e595d08141858dad95960921b60448201526064015b60405180910390fd5b61055f33610c4c565b61056857600080fd5b600083815260076020908152604091829020600c8101805460ff19166003179055600a0184905590518481527fa96ae0fc3224ebd79eebfe54bd130cc9cb94416cddd1f2386115e00b72532468910160405180910390a1505050565b6004546001600160a01b03163314156105e6576004546001600160a01b031680ff5b565b80600080828152600760208190526040909120600c015460ff169081111561062057634e487b7160e01b600052602160045260246000fd5b146106615760405162461bcd60e51b8152602060048201526011602482015270139bdd081e595d081a185c9d995cdd1959607a1b604482015260640161054d565b61066a33610c4c565b61067357600080fd5b600082815260076020908152604091829020600c01805460ff1916600117905590518381527f5afe3b1bf87069693c075da5c22a98d63d1aef98a30dbbe538d0781a98b77ee591016104ce565b60006106cd60038361148c565b92915050565b6105e6336114c1565b6105e633611503565b60008181526007602052604081208054600182015460088301546009909301805492949193926060929182918291829182919061072190611af7565b80601f016020809104026020016040519081016040528092919081815260200182805461074d90611af7565b801561079a5780601f1061076f5761010080835404028352916020019161079a565b820191906000526020600020905b81548152906001019060200180831161077d57829003601f168201915b50505060008d8152600760208190526040909120600a810154600c90910154949a50985060ff9093169283111591506107e5905057634e487b7160e01b600052602160045260246000fd5b60008b8152600760205260409020600c810154600d820154600e909201549296506001600160a01b036101009091048116955090811693501690509193959799909294969850565b61083633610b41565b5061046781611545565b6000818152600760205260409020805460018201546002830154600384015460049094018054939492936001600160a01b03928316939092169160609182918291829161088c90611af7565b80601f01602080910402602001604051908101604052809291908181526020018280546108b890611af7565b80156109055780601f106108da57610100808354040283529160200191610905565b820191906000526020600020905b8154815290600101906020018083116108e857829003601f168201915b50505060008c815260076020526040902060050180549397509261092b92509050611af7565b80601f016020809104026020016040519081016040528092919081815260200182805461095790611af7565b80156109a45780601f10610979576101008083540402835291602001916109a4565b820191906000526020600020905b81548152906001019060200180831161098757829003601f168201915b50505060008c81526007602052604090206006018054939650926109ca92509050611af7565b80601f01602080910402602001604051908101604052809291908181526020018280546109f690611af7565b8015610a435780601f10610a1857610100808354040283529160200191610a43565b820191906000526020600020905b815481529060010190602001808311610a2657829003601f168201915b50505050509150600760008a81526020019081526020016000206007018054610a6b90611af7565b80601f0160208091040260200160405190810160405280929190818152602001828054610a9790611af7565b8015610ae45780601f10610ab957610100808354040283529160200191610ae4565b820191906000526020600020905b815481529060010190602001808311610ac757829003601f168201915b50505050509050919395975091939597565b610aff33610c4c565b610b0857600080fd5b61046781611587565b6105e6336115c9565b60006106cd818361148c565b610b2f336106c0565b610b3857600080fd5b6104678161160b565b60006106cd60018361148c565b8060056000828152600760208190526040909120600c015460ff1690811115610b8757634e487b7160e01b600052602160045260246000fd5b14610bc65760405162461bcd60e51b815260206004820152600f60248201526e139bdd081e595d0814da1a5c1c1959608a1b604482015260640161054d565b610bcf336106c0565b610bd857600080fd5b6000828152600760209081526040918290206002810180546001600160a01b031990811633908117909255600d830180549091169091179055600c01805460ff1916600617905590518381527fa8142743f8f70a4c26f3691cf4ed59718381fb2f18070ec52be1f1022d85555791016104ce565b60006106cd60028361148c565b6040518061020001604052806006548152602001888152602001600460009054906101000a90046001600160a01b03166001600160a01b03168152602001876001600160a01b0316815260200186815260200185815260200184815260200183815260200160065489610ccc9190611ac8565b81526020018281526020016000815260200160405180602001604052806000815250815260200160006007811115610d1457634e487b7160e01b600052602160045260246000fd5b815260006020808301829052604080840183905260609384018390528b8352600782529182902084518155848201516001820155918401516002830180546001600160a01b03199081166001600160a01b039384161790915593850151600384018054909516911617909255608083015180519192610d9b926004850192909101906116d7565b5060a08201518051610db79160058401916020909101906116d7565b5060c08201518051610dd39160068401916020909101906116d7565b5060e08201518051610def9160078401916020909101906116d7565b5061010082015160088201556101208201518051610e179160098401916020909101906116d7565b50610140820151600a8201556101608201518051610e3f91600b8401916020909101906116d7565b50610180820151600c8201805460ff19166001836007811115610e7257634e487b7160e01b600052602160045260246000fd5b02179055506101a0820151600c82018054610100600160a81b0319166101006001600160a01b03938416021790556101c0830151600d830180546001600160a01b03199081169284169290921790556101e090930151600e90920180549093169116179055600654610ee5906001611ac8565b6006556040518781527f8e55ccfc9778ff8eba1646d765cf1982537ce0f9257054a17b48aad7452501839060200160405180910390a150505050505050565b8060066000828152600760208190526040909120600c015460ff1690811115610f5d57634e487b7160e01b600052602160045260246000fd5b14610f9d5760405162461bcd60e51b815260206004820152601060248201526f139bdd081e595d08149958d95a5d995960821b604482015260640161054d565b610fa633610b1a565b610faf57600080fd5b6000828152600760208190526040909120600281018054336001600160a01b03199182168117909255600e830180549091169091179055600c01805460ff191660018302179055506040518281527f653d56639fee6b566a5c804764e9689de38645f0b733df89a36a1b7b42173dd8906020016104ce565b6105e63361164d565b8060036000828152600760208190526040909120600c015460ff169081111561106957634e487b7160e01b600052602160045260246000fd5b146110a85760405162461bcd60e51b815260206004820152600f60248201526e4e6f742079657420466f7253616c6560881b604482015260640161054d565b6000828152600760205260409020600a01543481111561111c5760405162461bcd60e51b815260206004820152602960248201527f596f7572206d6f6e657920646f65736e7420656e6f75676820746f206275792060448201526874686973206974656d60b81b606482015260840161054d565b8261112633610b41565b506000848152600760205260408082206002810180546001600160a01b03191633908117909155600c82018054600461010090930260ff19166001600160a81b0319909116179190911790556003810154600a9091015491516001600160a01b0390911692839280156108fc02929091818181858888f193505050501580156111b3573d6000803e3d6000fd5b506040518581527f92f64ca637d023f354075a4be751b169c1a8a9ccb6d33cdd0cb35205439957279060200160405180910390a1506000818152600760205260408120600a0154906112058234611ae0565b600084815260076020526040808220600e015490519293506001600160a01b031691829184156108fc02918591818181858888f1935050505015801561124f573d6000803e3d6000fd5b5050505050505050565b8060016000828152600760208190526040909120600c015460ff169081111561129257634e487b7160e01b600052602160045260246000fd5b146112d35760405162461bcd60e51b8152602060048201526011602482015270139bdd081e595d08141c9bd8d95cdcd959607a1b604482015260640161054d565b6112dc33610c4c565b6112e557600080fd5b600082815260076020908152604091829020600c01805460ff1916600217905590518381527f9b3b66e2380b690bae22c73ef1428fb0c91e72fe14a4b6defa13035214187aff91016104ce565b8060046000828152600760208190526040909120600c015460ff169081111561136b57634e487b7160e01b600052602160045260246000fd5b146113a75760405162461bcd60e51b815260206004820152600c60248201526b139bdd081e595d0814dbdb1960a21b604482015260640161054d565b6113b033610b41565b50600082815260076020908152604091829020600c01805460ff1916600517905590518381527ff00b9a5725b80c54016f42114f6ed7792d22eecb116011c4afac29c57bef6c9591016104ce565b6001600160a01b03811661141157600080fd5b61141b828261148c565b1561142557600080fd5b6001600160a01b0316600090815260209190915260409020805460ff19166001179055565b6114556000826113fe565b6040516001600160a01b038216907f28b26e7a3d20aedbc5f8f2ebf7da671c0491723a2b78f47a097b0e46dee0714290600090a250565b60006001600160a01b0382166114a157600080fd5b506001600160a01b03166000908152602091909152604090205460ff1690565b6114cc60008261168f565b6040516001600160a01b038216907fe3f5ed5f263f1f01764a96edfc7d025f511ec5f7d180e8816908b78bcf74f09890600090a250565b61150e60018261168f565b6040516001600160a01b038216907f126174f6cf49c81cdb4a9214c6b8f037bef55b4ec31e4fc776cea2a1c8a88d5990600090a250565b6115506001826113fe565b6040516001600160a01b038216907fddbf200aa634dc3fb81cfd68583dd1040d1c751d335e1d86b631bde3e977fea890600090a250565b6115926002826113fe565b6040516001600160a01b038216907f2e0ded4123377a3c2bc9a26f1717655a129e2f20752924d42e730ec89c83dbd090600090a250565b6115d460028261168f565b6040516001600160a01b038216907fa5e0f060af304ab17dd418c7927e3da3ae7868189bf387aee09ab179ccc572f290600090a250565b6116166003826113fe565b6040516001600160a01b038216907f71ae26cad02663e3d92efd6ec56031a80d74a20c0ab4183faa8bf262261c9baa90600090a250565b61165860038261168f565b6040516001600160a01b038216907fdb7176e79cffef81cb01767dd0447a0b24bb72ca9778d4b245581086b2a7e6db90600090a250565b6001600160a01b0381166116a257600080fd5b6116ac828261148c565b6116b557600080fd5b6001600160a01b0316600090815260209190915260409020805460ff19169055565b8280546116e390611af7565b90600052602060002090601f016020900481019282611705576000855561174b565b82601f1061171e57805160ff191683800117855561174b565b8280016001018555821561174b579182015b8281111561174b578251825591602001919060010190611730565b5061175792915061175b565b5090565b5b80821115611757576000815560010161175c565b80356001600160a01b038116811461178757600080fd5b919050565b600082601f83011261179c578081fd5b813567ffffffffffffffff808211156117b7576117b7611b48565b604051601f8301601f19908116603f011681019082821181831017156117df576117df611b48565b816040528381528660208588010111156117f7578485fd5b8360208701602083013792830160200193909352509392505050565b600060208284031215611824578081fd5b61182d82611770565b9392505050565b600060208284031215611845578081fd5b5035919050565b600080600080600080600060e0888a031215611866578283fd5b8735965061187660208901611770565b9550604088013567ffffffffffffffff80821115611892578485fd5b61189e8b838c0161178c565b965060608a01359150808211156118b3578485fd5b6118bf8b838c0161178c565b955060808a01359150808211156118d4578485fd5b6118e08b838c0161178c565b945060a08a01359150808211156118f5578384fd5b6119018b838c0161178c565b935060c08a0135915080821115611916578283fd5b506119238a828b0161178c565b91505092959891949750929550565b60008060408385031215611944578182fd5b82359150602083013567ffffffffffffffff811115611961578182fd5b61196d8582860161178c565b9150509250929050565b60008060408385031215611989578182fd5b50508035926020909101359150565b60008151808452815b818110156119bd576020818501810151868301820152016119a1565b818111156119ce5782602083870101525b50601f01601f19169290920160200192915050565b888152602081018890526001600160a01b0387811660408301528616606082015261010060808201819052600090611a1d83820188611998565b905082810360a0840152611a318187611998565b905082810360c0840152611a458186611998565b905082810360e0840152611a598185611998565b9b9a5050505050505050505050565b60006101208b83528a6020840152896040840152806060840152611a8e8184018a611998565b6080840198909852505060a08101949094526001600160a01b0392831660c085015290821660e08401521661010090910152949350505050565b60008219821115611adb57611adb611b32565b500190565b600082821015611af257611af2611b32565b500390565b600181811c90821680611b0b57607f821691505b60208210811415611b2c57634e487b7160e01b600052602260045260246000fd5b50919050565b634e487b7160e01b600052601160045260246000fd5b634e487b7160e01b600052604160045260246000fdfea26469706673582212208ac476a2875e2fe7f6c7e9173cb1d7b2c07f0c239e900b7570010b3475bd4dad64736f6c63430008040033",
  "immutableReferences": {},
  "source": "// SPDX-License-Identifier: MIT\npragma solidity >=0.6.8;\n\nimport '../coffeeaccesscontrol/ConsumerRole.sol';\nimport '../coffeeaccesscontrol/DistributorRole.sol';\nimport '../coffeeaccesscontrol/FarmerRole.sol';\nimport '../coffeeaccesscontrol/RetailerRole.sol';\n\n// Define a contract 'Supplychain'\ncontract SupplyChain is\n  ConsumerRole,\n  DistributorRole,\n  FarmerRole,\n  RetailerRole\n{\n  // Define 'owner'\n  address contractOwner;\n\n  // Define a variable called 'upc' for Universal Product Code (UPC)\n  uint256 upc;\n\n  // Define a variable called 'sku' for Stock Keeping Unit (SKU)\n  uint256 sku;\n\n  // Define a public mapping 'items' that maps the UPC to an Item.\n  mapping(uint256 => Item) items;\n\n  // Define a public mapping 'itemsHistory' that maps the UPC to an array of TxHash,\n  // that track its journey through the supply chain -- to be sent from DApp.\n  mapping(uint256 => string[]) itemsHistory;\n\n  // Define enum 'State' with the following values:\n  enum State {\n    Harvested, // 0\n    Processed, // 1\n    Packed, // 2\n    ForSale, // 3\n    Sold, // 4\n    Shipped, // 5\n    Received, // 6\n    Purchased // 7\n  }\n\n  State constant defaultState = State.Harvested;\n\n  // Define a struct 'Item' with the following fields:\n  struct Item {\n    uint256 sku; // Stock Keeping Unit (SKU)\n    uint256 upc; // Universal Product Code (UPC), generated by the Farmer, goes on the package, can be verified by the Consumer\n    address itemOwnerID; // Metamask-Ethereum address of the current owner as the product moves through 8 stages\n    address originFarmerID; // Metamask-Ethereum address of the Farmer\n    string originFarmName; // Farmer Name\n    string originFarmInformation; // Farmer Information\n    string originFarmLatitude; // Farm Latitude\n    string originFarmLongitude; // Farm Longitude\n    uint256 productID; // Product ID potentially a combination of upc + sku\n    string productNotes; // Product Notes\n    uint256 productPrice; // Product Price\n    string productImage; // Product Image\n    State itemState; // Product State as represented in the enum above\n    address distributorID; // Metamask-Ethereum address of the Distributor\n    address retailerID; // Metamask-Ethereum address of the Retailer\n    address consumerID; // Metamask-Ethereum address of the Consumer\n  }\n\n  // Define 8 events with the same 8 state values and accept 'upc' as input argument\n  event Harvested(uint256 upc);\n  event Processed(uint256 upc);\n  event Packed(uint256 upc);\n  event ForSale(uint256 upc);\n  event Sold(uint256 upc);\n  event Shipped(uint256 upc);\n  event Received(uint256 upc);\n  event Purchased(uint256 upc);\n  event SavedImage(uint256 upc);\n\n  // Define a modifer that checks to see if msg.sender == owner of the contract\n  modifier onlyContractOwner() {\n    require(msg.sender == contractOwner, 'Only owner of the contract');\n    _;\n  }\n\n  // Define a modifer that verifies the Caller\n  modifier verifyCaller(address _address) {\n    require(msg.sender == _address, 'Sender Address and address didnt match');\n    _;\n  }\n\n  // Define a modifier that checks if the paid amount is sufficient to cover the price\n  modifier paidEnough(uint256 _price) {\n    require(msg.value >= _price, 'Your money doesnt enough to buy this item');\n    _;\n  }\n\n  // Define a modifier that checks the price and refunds the remaining balance\n  modifier checkValue(uint256 _upc) {\n    _;\n    uint256 _price = items[_upc].productPrice;\n    uint256 amountToReturn = msg.value - _price;\n    address payable userAddressPayable = payable(items[_upc].consumerID);\n    userAddressPayable.transfer(amountToReturn);\n  }\n\n  // Define a modifier that checks if an item.state of a upc is Harvested\n  modifier harvested(uint256 _upc) {\n    require(items[_upc].itemState == State.Harvested, 'Not yet harvested');\n    _;\n  }\n\n  // Define a modifier that checks if an item.state of a upc is Processed\n  modifier processed(uint256 _upc) {\n    require(items[_upc].itemState == State.Processed, 'Not yet Processed');\n    _;\n  }\n\n  // Define a modifier that checks if an item.state of a upc is Packed\n  modifier packed(uint256 _upc) {\n    require(items[_upc].itemState == State.Packed, 'Not yet Packed');\n    _;\n  }\n\n  // Define a modifier that checks if an item.state of a upc is ForSale\n  modifier forSale(uint256 _upc) {\n    require(items[_upc].itemState == State.ForSale, 'Not yet ForSale');\n    _;\n  }\n\n  // Define a modifier that checks if an item.state of a upc is Sold\n  modifier sold(uint256 _upc) {\n    require(items[_upc].itemState == State.Sold, 'Not yet Sold');\n    _;\n  }\n\n  // Define a modifier that checks if an item.state of a upc is Shipped\n  modifier shipped(uint256 _upc) {\n    require(items[_upc].itemState == State.Shipped, 'Not yet Shipped');\n    _;\n  }\n\n  // Define a modifier that checks if an item.state of a upc is Received\n  modifier received(uint256 _upc) {\n    require(items[_upc].itemState == State.Received, 'Not yet Received');\n    _;\n  }\n\n  // Define a modifier that checks if an item.state of a upc is Purchased\n  modifier purchased(uint256 _upc) {\n    require(items[_upc].itemState == State.Purchased, 'Not yet Purchased');\n    _;\n  }\n\n  // In the constructor set 'owner' to the address that instantiated the contract\n  // and set 'sku' to 1\n  // and set 'upc' to 1\n  constructor() public payable {\n    contractOwner = msg.sender;\n    sku = 1;\n    upc = 1;\n  }\n\n  // Define a function 'kill' if required\n  function kill() public {\n    if (msg.sender == contractOwner) {\n      address payable payableContractOwner = payable(contractOwner);\n\n      selfdestruct(payableContractOwner);\n    }\n  }\n\n  // Added image to Contract String URL from IPFS\n  function addProductImage(uint _upc, string memory _productImage) public onlyFarmer {\n    items[_upc].productImage = _productImage;\n\n    emit SavedImage(_upc);\n  }\n\n  // Define a function 'harvestItem' that allows a farmer to mark an item 'Harvested'\n  function harvestItem(\n    uint256 _upc,\n    address _originFarmerID,\n    string memory _originFarmName,\n    string memory _originFarmInformation,\n    string memory _originFarmLatitude,\n    string memory _originFarmLongitude,\n    string memory _productNotes\n  ) public {\n    // Add the new item as part of Harvest\n    items[_upc] = Item({\n      sku: sku, // Stock Keeping Unit (SKU)\n      upc: _upc, // Universal Product Code (UPC), generated by the Farmer, goes on the package, can be verified by the Consumer\n      itemOwnerID: contractOwner, // Metamask-Ethereum address of the current owner as the product moves through 8 stages\n      originFarmerID: _originFarmerID, // Metamask-Ethereum address of the Farmer\n      originFarmName: _originFarmName, // Farmer Name\n      originFarmInformation: _originFarmInformation, // Farmer Information\n      originFarmLatitude: _originFarmLatitude, // Farm Latitude\n      originFarmLongitude: _originFarmLongitude, // Farm Longitude\n      productID: _upc + sku, // Product ID potentially a combination of upc + sku\n      productNotes: _productNotes, // Product Notes\n      productImage: '', // Product Image\n      productPrice: uint256(0), // Product Price\n      itemState: State.Harvested, // Product State as represented in the enum above\n      distributorID: address(0), // Metamask-Ethereum address of the Distributor\n      retailerID: address(0), // Metamask-Ethereum address of the Retailer\n      consumerID: address(0) // Metamask-Ethereum address o\n    });\n    // Increment sku\n    sku = sku + 1;\n    // Emit the appropriate event\n    emit Harvested(_upc);\n  }\n\n  // Define a function 'processtItem' that allows a farmer to mark an item 'Processed'\n  // Call modifier to check if upc has passed previous supply chain stage\n  // Call modifier to verify caller of this function\n  function processItem(uint256 _upc) public harvested(_upc) onlyFarmer {\n    // Update the appropriate fields\n    items[_upc].itemState = State.Processed;\n    // Emit the appropriate event\n    emit Processed(_upc);\n  }\n\n  // Define a function 'packItem' that allows a farmer to mark an item 'Packed'\n  // Call modifier to check if upc has passed previous supply chain stage\n  // Call modifier to verify caller of this function\n  function packItem(uint256 _upc) public processed(_upc) onlyFarmer {\n    // Update the appropriate fields\n    items[_upc].itemState = State.Packed;\n    // Emit the appropriate event\n    emit Packed(_upc);\n  }\n\n  // Define a function 'sellItem' that allows a farmer to mark an item 'ForSale'\n  // Call modifier to check if upc has passed previous supply chain stage\n  // Call modifier to verify caller of this function\n  function sellItem(uint256 _upc, uint256 _price) public packed(_upc) onlyFarmer {\n    // Update the appropriate fields\n    items[_upc].itemState = State.ForSale;\n    items[_upc].productPrice = _price;\n    // Emit the appropriate event\n    emit ForSale(_upc);\n  }\n\n  // Define a function 'buyItem' that allows the disributor to mark an item 'Sold'\n  // Use the above defined modifiers to check if the item is available for sale, if the buyer has paid enough,\n  // and any excess ether sent is refunded back to the buyer\n  function buyItem(uint256 _upc) public payable forSale(_upc) paidEnough(items[_upc].productPrice) checkValue(_upc) onlyDistributor {\n    // Update the appropriate fields - ownerID, distributorID, itemState\n    items[_upc].itemOwnerID = msg.sender;\n    items[_upc].distributorID = msg.sender;\n    items[_upc].itemState = State.Sold;\n    // Transfer money to farmer\n    address payable payableOriginFarmerID = payable(items[_upc].originFarmerID);\n    payableOriginFarmerID.transfer(items[_upc].productPrice);\n    // emit the appropriate event\n    emit Sold(_upc);\n  }\n\n  // Define a function 'shipItem' that allows the distributor to mark an item 'Shipped'\n  // Use the above modifers to check if the item is sold\n  // Call modifier to verify caller of this function\n  function shipItem(uint256 _upc) public sold(_upc) onlyDistributor {\n    // Update the appropriate fields\n    items[_upc].itemState = State.Shipped;\n    // Emit the appropriate event\n    emit Shipped(_upc);\n  }\n\n  // Define a function 'receiveItem' that allows the retailer to mark an item 'Received'\n  // Use the above modifiers to check if the item is shipped\n  // Call modifier to check if upc has passed previous supply chain stage\n  // Access Control List enforced by calling Smart Contract / DApp\n  function receiveItem(uint256 _upc) public shipped(_upc) onlyRetailer {\n    // Update the appropriate fields - ownerID, retailerID, itemState\n    items[_upc].itemOwnerID = msg.sender;\n    items[_upc].retailerID = msg.sender;\n    items[_upc].itemState = State.Received;\n    // Emit the appropriate event\n    emit Received(_upc);\n  }\n\n  // Define a function 'purchaseItem' that allows the consumer to mark an item 'Purchased'\n  // Use the above modifiers to check if the item is received\n  // Call modifier to check if upc has passed previous supply chain stage\n  // Access Control List enforced by calling Smart Contract / DApp\n  function purchaseItem(uint256 _upc) public received(_upc) onlyConsumer {\n    // Update the appropriate fields - ownerID, consumerID, itemState\n    items[_upc].itemOwnerID = msg.sender;\n    items[_upc].consumerID = msg.sender;\n    items[_upc].itemState = State.Purchased;\n    // Emit the appropriate event\n    emit Purchased(_upc);\n  }\n\n  // Define a function 'fetchItemBufferOne' that fetches the data\n  function fetchItemBufferOne(uint256 _upc)\n    public\n    view\n    returns (\n      uint256 itemSKU,\n      uint256 itemUPC,\n      address ownerID,\n      address originFarmerID,\n      string memory originFarmName,\n      string memory originFarmInformation,\n      string memory originFarmLatitude,\n      string memory originFarmLongitude\n    )\n  {\n    // Assign values to the 8 parameters\n    itemSKU = items[_upc].sku;\n    itemUPC = items[_upc].upc;\n    ownerID = items[_upc].itemOwnerID;\n    originFarmerID = items[_upc].originFarmerID;\n    originFarmName = items[_upc].originFarmName;\n    originFarmInformation = items[_upc].originFarmInformation;\n    originFarmLatitude = items[_upc].originFarmLatitude;\n    originFarmLongitude = items[_upc].originFarmLongitude;\n\n    return (\n      itemSKU,\n      itemUPC,\n      ownerID,\n      originFarmerID,\n      originFarmName,\n      originFarmInformation,\n      originFarmLatitude,\n      originFarmLongitude\n    );\n  }\n\n  // Define a function 'fetchItemBufferTwo' that fetches the data\n  function fetchItemBufferTwo(uint256 _upc) public view returns (\n      uint256 itemSKU,\n      uint256 itemUPC,\n      uint256 productID,\n      string memory productNotes,\n      uint256 productPrice,\n      uint256 itemState,\n      address distributorID,\n      address retailerID,\n      address consumerID\n    )\n  {\n    // Assign values to the 9 parameters\n    itemSKU = items[_upc].sku;\n    itemUPC = items[_upc].upc;\n    productID = items[_upc].productID;\n    productNotes = items[_upc].productNotes;\n    productPrice = items[_upc].productPrice;\n    itemState = uint(items[_upc].itemState);\n    distributorID = items[_upc].distributorID;\n    retailerID = items[_upc].retailerID;\n    consumerID = items[_upc].consumerID;\n\n    return (\n      itemSKU, //0\n      itemUPC, //1\n      productID, //2\n      productNotes, //3\n      productPrice, //4\n      itemState, //5\n      distributorID, //6\n      retailerID, //7\n      consumerID //8\n    );\n  }\n}\n",
  "sourcePath": "/Users/hryer/Code/coffee-supply-chain/contracts/coffeebase/SupplyChain.sol",
  "compiler": {
    "name": "solc",
    "version": "0.8.4+commit.c7e474f2.Emscripten.clang"
  },
  "schemaVersion": "3.4.3",
  "updatedAt": "2021-09-27T18:34:36.172Z",
  "networkType": "ethereum",
  "devdoc": {
    "kind": "dev",
    "methods": {},
    "version": 1
  },
  "userdoc": {
    "kind": "user",
    "methods": {},
    "version": 1
  }
}